:100000000C942A000C9447000C9447000C94470071
:100010000C9447000C9447000C9447000C94470044
:100020000C9447000C9447000C9447000C94470034
:100030000C9447000C9447000C9447000C94470024
:100040000C9447000C9447000C9447000C94470014
:100050000C94470011241FBECFE5D8E0DEBFCDBF12
:1000600010E0A0E6B0E0E2E4FEE002C005900D92F0
:10007000A23BB107D9F720E0A2EBB0E001C01D928E
:10008000A13DB207E1F70E9480010C941F070C9478
:10009000000023E023BF33E8019748F032BF28B7C0
:1000A000216028BFA89508B600FEFDCFF5CF13BE8E
:1000B0000895662311F0C09A01C0C098C19882BB10
:1000C0008FEF81BBC29A000000000000C298089523
:1000D000C098C19A11BA90B3C29A00000000000003
:1000E00011BA90B3C29897FDF3CF0C945900B89A07
:1000F000B99ABA9A80E190E00E94490060E080E3FA
:100100000E94590085E090E00E94490060E080E391
:100110000E94590081E090E00E94490060E08CE379
:100120000E94680060E08CE00E94680060E086E069
:100130000E94680060E081E00C94680060E081E06B
:100140000C946800CF93C62F98E2899FC00D1124AC
:1001500060E082E00E946800CC2331F060E084E13E
:100160000E946800C150F8CFCF910895CF93DF93DC
:10017000EC018991882321F061E00E946800F9CFA9
:10018000DF91CF910895CF93C82F14BA15BA95B3C4
:1001900021E030E0A90101C0440F8A95EAF7942BD1
:1001A00095BB94B301C0220F6A95EAF7922B94BBDA
:1001B00084E690E00E94490023B330E002C0359508
:1001C0002795CA95E2F7822F80958170CF91089587
:1001D0004F925F926F927F928F929F92AF92BF9257
:1001E000CF92DF92EF92FF920F931F93CF93DF9303
:1001F000379A369A349BFECF64B175B180E090E0B7
:100200000E94DA0224E13EEA43E251E40E944602FF
:1002100020E030E040EA50E40E9468030E94AE0211
:100220002B013C01DB01709363006093620092013B
:1002300040E050E060E070E080E090E0A090B4002A
:10024000B090B500C090B600D090B700E090B80074
:10025000F090B9000091BA001091BB000E943E04DA
:100260002093B4003093B5004093B6005093B7008C
:100270006093B8007093B9008093BA009093BB006C
:10028000E091B200F091B3003196F093B300E093A7
:10029000B200C091BE00D091BF00C415D50520F4B6
:1002A0005092BF004092BE00C0916000D0916100AA
:1002B000AC17BD0720F450926100409260001F2FE0
:1002C000110F110B5F01C12ED12EE12EF12E012F46
:1002D0000E94E1032093BC003093BD003798DF916A
:1002E000CF911F910F91FF90EF90DF90CF90BF9033
:1002F000AF909F908F907F906F905F904F900895F8
:100300000E9477000E949E003E9A86B1876886B957
:10031000C0ECD0E004E610E08DE7682E80E0782E97
:1003200097E9492E90E0592EEE24E394F12C3FE01A
:10033000C32E37E2D32E60E080E00E94A20064E684
:1003400070E080EC90E00E94470480EC90E00E9416
:10035000B60060E081E00E94A20065E770E080ECFA
:1003600090E00E94470480EC90E00E94B60067E0B5
:1003700080E00E94C3008823F1F267E081E00E94E0
:10038000C300882339F1F0926300E092620010927A
:10039000BF001092BE00D0926100C0926000109227
:1003A000BD001092BC001092B4001092B5001092E3
:1003B000B6001092B7001092B8001092B9001092D7
:1003C000BA001092BB001092B3001092B2000E94CB
:1003D0009E00B1CF0E94E8000E949E0060E080E095
:1003E0000E94A2002091620030916300A090BC00A6
:1003F000B090BD008091BE009091BF0080906000E1
:1004000090906100B8010E94CB039F938F937F93DC
:100410006F93C901B8010E94CB039F938F937F9381
:100420006F937F926F92DF93CF930E944E0480EC84
:1004300090E00E94B60060E081E00E94A200C4014A
:10044000B8010E94CB039F938F937F936F93C50155
:10045000B8010E94CB039F938F937F936F935F921A
:100460004F92DF93CF930E944E0480EC90E00E9465
:10047000B60084EF91E00E9449008DB79EB7489680
:100480000FB6F8949EBF0FBE8DBF77CF0CD0E6C0DD
:10049000DED040F0D5D030F021F45F3F19F0C7C076
:1004A000511110C1CAC0EBD098F39923C9F3552359
:1004B000B1F3951B550BBB27AA2762177307840757
:1004C00038F09F5F5F4F220F331F441FAA1FA9F30D
:1004D00033D00E2E3AF0E0E830D091505040E695FF
:1004E000001CCAF729D0FE2F27D0660F771F881F60
:1004F000BB1F261737074807AB07B0E809F0BB0B4F
:10050000802DBF01FF2793585F4F2AF09E3F510572
:1005100068F08DC0D7C05F3FECF3983EDCF3869562
:1005200077956795B795F7959F5FC9F7880F911DE8
:100530009695879597F90895E1E0660F771F881FD4
:10054000BB1F621773078407BA0720F0621B730B87
:10055000840BBA0BEE1F88F7E095089598D088F0C9
:100560009F5790F0B92F9927B751A0F0D1F0660F9F
:10057000771F881F991F1AF0BA95C9F712C0B130BA
:1005800081F09FD0B1E008959CC0672F782F882715
:10059000B85F39F0B93FCCF3869577956795B395F9
:1005A000D9F73EF490958095709561957F4F8F4F68
:1005B0009F4F0895E89409C097FB3EF4909580956D
:1005C000709561957F4F8F4F9F4F9923A9F0F92F19
:1005D00096E9BB279395F695879577956795B79597
:1005E000F111F8CFFAF4BB0F11F460FF1BC06F5F7D
:1005F0007F4F8F4F9F4F16C0882311F096E911C08F
:10060000772321F09EE8872F762F05C0662371F0AF
:1006100096E8862F70E060E02AF09A95660F771FC3
:10062000881FDAF7880F9695879597F9089597F9B7
:100630009F6780E870E060E008959FEF80EC089588
:1006400000240A94161617061806090608950024B1
:100650000A9412161306140605060895092E03942B
:10066000000C11F4882352F0BB0F40F4BF2B11F49F
:1006700060FF04C06F5F7F4F8F4F9F4F089557FDFE
:100680009058440F551F59F05F3F71F04795880F00
:1006900097FB991F61F09F3F79F087950895121697
:1006A00013061406551FF2CF4695F1DF08C0161643
:1006B00017061806991FF1CF8695710561050894F4
:1006C0000895E894BB2766277727CB0197F908950B
:1006D0000BD0C4CFB5DF28F0BADF18F0952309F0AE
:1006E000A6CFABCF1124EECFCADFA0F3959FD1F3F5
:1006F000950F50E0551F629FF001729FBB27F00DD0
:10070000B11D639FAA27F00DB11DAA1F649F662724
:10071000B00DA11D661F829F2227B00DA11D621F73
:10072000739FB00DA11D621F839FA00D611D221F2D
:10073000749F3327A00D611D231F849F600D211D11
:10074000822F762F6A2F11249F5750408AF0E1F0B4
:1007500088234AF0EE0FFF1FBB1F661F771F881FFD
:1007600091505040A9F79E3F510570F060CFAACF3D
:100770005F3FECF3983EDCF3869577956795B795E8
:10078000F795E7959F5FC1F7FE2B880F911D969512
:10079000879597F90895AA1BBB1B51E107C0AA1FB3
:1007A000BB1FA617B70710F0A61BB70B881F991F12
:1007B0005A95A9F780959095BC01CD01089568944C
:1007C00001C0E8948F929F92CF93DF930E94ED0334
:1007D000DF91CF919F908F90089588249924F40100
:1007E000E401B0E49F93AA279A158B049C04ED05BD
:1007F000FE05CF05D007A10798F4AD2FDC2FCF2F32
:10080000FE2FE92D982C892E982F872F762F652F74
:10081000542F432F322F2227B85031F7BF9127C0D2
:100820001B2EBF91BB27220F331F441F551F661F6E
:10083000771F881F991F881C991CEE1FFF1FCC1F54
:10084000DD1FAA1FBB1F8A149B04EC05FD05CE0506
:10085000DF05A007B10748F08A189B08EC09FD09DD
:10086000CE09DF09A00BB10B21601A94E1F62EF43A
:100870009401AF01BE01CD01000C08952A0D3B1D6E
:100880004C1D5D1D6E1D7F1D801F911F0895FB0176
:10089000DC0101900D920020E1F70895AEE0B0E098
:1008A000E4E5F4E00C94F6060D891E8986E08C835D
:1008B0001A8309838FEF9FE79E838D83AE01475E86
:1008C0005F4F6F89788DCE0101960E947004EF8191
:1008D000F885E00FF11F10822E96E4E00C941207C9
:1008E000ACE0B0E0E6E7F4E00C94E8067C016B01D4
:1008F0008A01FC0117821682838181FFBDC1CE016E
:1009000001964C01F7019381F60193FD859193FFC8
:1009100081916F01882309F4ABC1853239F493FDCD
:10092000859193FF81916F01853229F4B70190E0A1
:100930000E945806E7CF512C312C20E02032A0F441
:100940008B3269F030F4803259F0833269F42061DF
:100950002CC08D3239F0803339F4216026C02260FA
:10096000246023C0286021C027FD27C030ED380F48
:100970003A3078F426FF06C0FAE05F9E300D11246D
:10098000532E13C08AE0389E300D1124332E20627E
:100990000CC08E3221F426FD6BC1206406C08C365B
:1009A00011F4206802C0883641F4F60193FD859168
:1009B00093FF81916F018111C1CF982F9F7D955435
:1009C000933028F40C5F1F4FFFE3F9830DC083368B
:1009D00031F0833771F0833509F05BC022C0F80134
:1009E000808189830E5F1F4F44244394512C54010E
:1009F00015C03801F2E06F0E711CF801A080B180C3
:100A000026FF03C0652D70E002C06FEF7FEFC501C8
:100A10002C870E944D062C0183012C852F77222ED6
:100A200017C03801F2E06F0E711CF801A080B18090
:100A300026FF03C0652D70E002C06FEF7FEFC50198
:100A40002C870E9442062C012C852068222E8301CF
:100A500023FC1BC0832D90E048165906B0F4B70163
:100A600080E290E00E9458063A94F4CFF50127FC0A
:100A7000859127FE81915F01B70190E00E945806A1
:100A800031103A94F1E04F1A51084114510471F7B2
:100A9000E5C0843611F0893639F5F80127FF07C023
:100AA00060817181828193810C5F1F4F08C06081DA
:100AB0007181882777FD8095982F0E5F1F4F2F76C5
:100AC000B22E97FF09C090958095709561957F4FE4
:100AD0008F4F9F4F2068B22E2AE030E0A4010E9481
:100AE0008A06A82EA81844C0853729F42F7EB22E76
:100AF0002AE030E025C0F22FF97FBF2E8F36C1F0FB
:100B000018F4883579F0B4C0803719F0883721F0AF
:100B1000AFC02F2F2061B22EB4FE0DC08B2D84608C
:100B2000B82E09C024FF0AC09F2F9660B92E06C0B8
:100B300028E030E005C020E130E002C020E132E0F2
:100B4000F801B7FE07C060817181828193810C5FDB
:100B50001F4F06C06081718180E090E00E5F1F4FE3
:100B6000A4010E948A06A82EA818FB2DFF77BF2E8D
:100B7000B6FE0BC02B2D2E7FA51450F4B4FE0AC078
:100B8000B2FC08C02B2D2E7E05C07A2C2B2D03C065
:100B90007A2C01C0752C24FF0DC0FE01EA0DF11D59
:100BA0008081803311F4297E09C022FF06C073942E
:100BB000739404C0822F867809F0739423FD13C0C8
:100BC00020FF06C05A2C731418F4530C5718732CBA
:100BD000731468F4B70180E290E02C870E945806F5
:100BE00073942C85F5CF731410F4371801C0312C91
:100BF00024FF12C0B70180E390E02C870E945806C2
:100C00002C8522FF17C021FF03C088E590E002C0B9
:100C100088E790E0B7010CC0822F867859F021FD5B
:100C200002C080E201C08BE227FD8DE2B70190E0B7
:100C30000E945806A51438F4B70180E390E00E94A2
:100C400058065A94F7CFAA94F401EA0DF11D808159
:100C5000B70190E00E945806A110F5CF332009F4A7
:100C600051CEB70180E290E00E9458063A94F6CF48
:100C7000F7018681978102C08FEF9FEF2C96E2E10A
:100C80000C940407FC010590615070400110D8F7E6
:100C9000809590958E0F9F1F0895FC0161507040C4
:100CA00001900110D8F7809590958E0F9F1F0895A1
:100CB0000F931F93CF93DF93182F092FEB018B8195
:100CC00081FD03C08FEF9FEF20C082FF10C04E81D7
:100CD0005F812C813D81421753077CF4E881F981C3
:100CE0009F012F5F3F4F39832883108306C0E8851B
:100CF000F985812F0995892B29F72E813F812F5F57
:100D00003F4F3F832E83812F902FDF91CF911F91F3
:100D10000F910895FA01AA27283051F1203181F16D
:100D2000E8946F936E7F6E5F7F4F8F4F9F4FAF4FF3
:100D3000B1E03ED0B4E03CD0670F781F891F9A1F06
:100D4000A11D680F791F8A1F911DA11D6A0F711DBA
:100D5000811D911DA11D20D009F468943F912AE0C6
:100D6000269F11243019305D3193DEF6CF010895AE
:100D7000462F4770405D4193B3E00FD0C9F7F6CFDF
:100D8000462F4F70405D4A3318F0495D31FD4052A7
:100D9000419302D0A9F7EACFB4E0A695979587953D
:100DA00077956795BA95C9F700976105710508951C
:100DB0009B01AC010A2E06945795479537952795C8
:100DC000BA95C9F7620F731F841F951FA01D089560
:100DD0002F923F924F925F926F927F928F929F924B
:100DE000AF92BF92CF92DF92EF92FF920F931F9339
:100DF000CF93DF93CDB7DEB7CA1BDB0B0FB6F894EA
:100E0000DEBF0FBECDBF09942A88398848885F8429
:100E10006E847D848C849B84AA84B984C884DF809A
:100E2000EE80FD800C811B81AA81B981CE0FD11D7E
:100E30000FB6F894DEBF0FBECDBFED010895F89454
:020E4000FFCFE2
:100E42000F270100413A53746172742053616D702F
:100E52006C696E6700423A72657365740043723A58
:100E6200253031642E25303264204D783A253031D8
:100E7200642E25303264004176673A253031642E83
:100E820025303264204D6E3A253031642E253032C1
:020E92006400FA
:00000001FF
