S010000070726F6A656374342E73726563E9
S11300000C942A000C943C000C943C000C943C008E
S11300100C943C000C943C000C943C000C943C006C
S11300200C943C000C943C000C943C000C943C005C
S11300300C943C000C943C000C943C000C943C004C
S11300400C943C000C943C000C943C000C943C003C
S11300500C943C0011241FBECFE5D8E0DEBFCDBF19
S113006020E0A0E6B0E001C01D92A137B207E1F79D
S11300700E94BF000C94B7030C94000022E023BF3D
S113008036EF08C032BF28B7216028BFA89508B64C
S113009000FEFDCF0197B0F713BE0895662311F05B
S11300A0C09A01C0C098C19882BB8FEF81BBC29A2D
S11300B0000000000000C2980895C098C19A11BAC7
S11300C090B3C29A00000000000011BA90B3C29825
S11300D099239CF30E944E000895B89AB99ABA9A4B
S11300E080E190E00E943E0060E080E30E944E00C8
S11300F085E090E00E943E0060E080E30E944E00B4
S113010081E090E00E943E0060E08CE30E945D008C
S113011060E08CE00E945D0060E086E00E945D008B
S113012060E081E00E945D00089560E081E00E944B
S11301305D000895CF93C62F98E2899FC00D1124C6
S113014060E082E00E945D00CC2331F060E084E155
S11301500E945D00C150D1F7CF910895CF93DF93F2
S1130160EC012196FC018081882331F061E00E943A
S11301705D0089918111FACFDF91CF910895CF93DA
S1130180DF930E946D000E9495003F9A86B18768B4
S113019086B9C4B1D5B186B186B960E080E00E9469
S11301A09A00DF93CF9380E690E09F938F930E9411
S11301B0E60080E690E00E94AE000F900F900F9052
S11301C00F9080E090E0DF91CF910895AEE0B0E031
S11301D0ECEEF0E00C948E030D891E8986E08C838E
S11301E01A8309838FEF9FE79E838D83AE01475E59
S11301F05F4F6F89788DCE0101960E940801EF81CF
S1130200F885E00FF11F10822E96E4E00C94AA0307
S1130210ACE0B0E0EEE0F1E00C9480037C016B0113
S11302208A01FC0117821682838181FFBDC1CE0140
S113023001964C01F7019381F60193FD859193FF9B
S113024081916F01882309F4ABC1853239F493FDA0
S1130250859193FF81916F01853229F4B70190E074
S11302600E94F002E7CF512C312C20E02032A0F480
S11302708B3269F030F4803259F0833269F42061B2
S11302802CC08D3239F0803339F4216026C02260CD
S1130290246023C0286021C027FD27C030ED380F1B
S11302A03A3078F426FF06C0FAE05F9E300D112440
S11302B0532E13C08AE0389E300D1124332E206251
S11302C00CC08E3221F426FD6BC1206406C08C362E
S11302D011F4206802C0883641F4F60193FD85913B
S11302E093FF81916F018111C1CF982F9F7D955408
S11302F0933028F40C5F1F4FFFE3F9830DC083365E
S113030031F0833771F0833509F05BC022C0F80106
S1130310808189830E5F1F4F44244394512C5401E0
S113032015C03801F2E06F0E711CF801A080B18095
S113033026FF03C0652D70E002C06FEF7FEFC5019B
S11303402C870E94E5022C0183012C852F77222E15
S113035017C03801F2E06F0E711CF801A080B18063
S113036026FF03C0652D70E002C06FEF7FEFC5016B
S11303702C870E94DA022C012C852068222E83010E
S113038023FC1BC0832D90E048165906B0F4B70136
S113039080E290E00E94F0023A94F4CFF50127FC49
S11303A0859127FE81915F01B70190E00E94F002E0
S11303B031103A94F1E04F1A51084114510471F785
S11303C0E5C0843611F0893639F5F80127FF07C0F6
S11303D060817181828193810C5F1F4F08C06081AD
S11303E07181882777FD8095982F0E5F1F4F2F7698
S11303F0B22E97FF09C090958095709561957F4FB7
S11304008F4F9F4F2068B22E2AE030E0A4010E9453
S11304102203A82EA81844C0853729F42F7EB22EB3
S11304202AE030E025C0F22FF97FBF2E8F36C1F0CD
S113043018F4883579F0B4C0803719F0883721F082
S1130440AFC02F2F2061B22EB4FE0DC08B2D84605F
S1130450B82E09C024FF0AC09F2F9660B92E06C08B
S113046028E030E005C020E130E002C020E132E0C5
S1130470F801B7FE07C060817181828193810C5FAE
S11304801F4F06C06081718180E090E00E5F1F4FB6
S1130490A4010E942203A82EA818FB2DFF77BF2ECB
S11304A0B6FE0BC02B2D2E7FA51450F4B4FE0AC04B
S11304B0B2FC08C02B2D2E7E05C07A2C2B2D03C038
S11304C07A2C01C0752C24FF0DC0FE01EA0DF11D2C
S11304D08081803311F4297E09C022FF06C0739401
S11304E0739404C0822F867809F0739423FD13C09B
S11304F020FF06C05A2C731418F4530C5718732C8D
S1130500731468F4B70180E290E02C870E94F00233
S113051073942C85F5CF731410F4371801C0312C63
S113052024FF12C0B70180E390E02C870E94F00200
S11305302C8522FF17C021FF03C088E590E002C08C
S113054088E790E0B7010CC0822F867859F021FD2E
S113055002C080E201C08BE227FD8DE2B70190E08A
S11305600E94F002A51438F4B70180E390E00E94E1
S1130570F0025A94F7CFAA94F401EA0DF11D808198
S1130580B70190E00E94F002A110F5CF332009F4E6
S113059051CEB70180E290E00E94F0023A94F6CF87
S11305A0F7018681978102C08FEF9FEF2C96E2E1DD
S11305B00C949C03FC010590615070400110D8F725
S11305C0809590958E0F9F1F0895FC016150704097
S11305D001900110D8F7809590958E0F9F1F089574
S11305E00F931F93CF93DF93182F092FEB018B8168
S11305F081FD03C08FEF9FEF20C082FF10C04E81AA
S11306005F812C813D81421753077CF4E881F98195
S11306109F012F5F3F4F39832883108306C0E885ED
S1130620F985812F0995892B29F72E813F812F5F29
S11306303F4F3F832E83812F902FDF91CF911F91C6
S11306400F910895FA01AA27283051F1203181F140
S1130650E8946F936E7F6E5F7F4F8F4F9F4FAF4FC6
S1130660B1E03ED0B4E03CD0670F781F891F9A1FD9
S1130670A11D680F791F8A1F911DA11D6A0F711D8D
S1130680811D911DA11D20D009F468943F912AE099
S1130690269F11243019305D3193DEF6CF01089581
S11306A0462F4770405D4193B3E00FD0C9F7F6CFB2
S11306B0462F4F70405D4A3318F0495D31FD40527A
S11306C0419302D0A9F7EACFB4E0A6959795879510
S11306D077956795BA95C9F70097610571050895EF
S11306E09B01AC010A2E069457954795379527959B
S11306F0BA95C9F7620F731F841F951FA01D089533
S11307002F923F924F925F926F927F928F929F921D
S1130710AF92BF92CF92DF92EF92FF920F931F930B
S1130720CF93DF93CDB7DEB7CA1BDB0B0FB6F894BC
S1130730DEBF0FBECDBF09942A88398848885F84FC
S11307406E847D848C849B84AA84B984C884DF806D
S1130750EE80FD800C811B81AA81B981CE0FD11D51
S11307600FB6F894DEBF0FBECDBFED010895F89427
S1050770FFCFB5
S9030000FC
